:1000000019C028C027C026C025C024C023C022C0D4
:1000100021C020C01FC01EC01DC01CC01BC01AC0F4
:1000200019C018C017C016C015C014C013C012C024
:1000300011C010C011241FBECFEFD2E0DEBFCDBF74
:1000400021E0A0E0B1E001C01D92A230B207E1F7CB
:100050003FD05BC0D5CF45B15091000152FB662720
:1000600060F9407C462B54FB222720F930E0220F18
:10007000331F242B55FB882780F990E0880F991FA8
:10008000880F991F822B85B99BB1809100019C77C5
:10009000282F2370922B88708295807F892B8BB9B3
:1000A00088B190910101990F817C892B88B90895BD
:1000B000809100018C3341F4109200018091010184
:1000C0008F5F8093010108958F5F809300010895F1
:1000D00087E084B98EE387B9549883E88AB95C9A3B
:1000E0004C99FECF83ED90E30197F1F700C000003B
:1000F0004C9902C0DDDFAFDF4C99F2CF83ED90E386
:0E0100000197F1F700C00000F7CFF894FFCF91
:00000001FF
