:1000000019C08DC127C026C025C024C023C086C00A
:1000100021C020C01FC01EC01DC01CC01BC01AC0F4
:1000200019C018C017C016C015C014C013C012C024
:1000300011C010C011241FBECFEFD2E0DEBFCDBF74
:1000400021E0A0E0B1E001C01D92A430B207E1F7C9
:1000500098D1E0C1D5CF45B1909101013091010116
:100060002091010192FB882780F9407C842B932FFB
:100070009695969596959270892B922F9695969532
:1000800096959470892B85B98BB19091010120913F
:1000900001018C779370892B90E1299F90011124A5
:1000A0002078822B8BB998B180910201917C880FC6
:1000B000892B88B90895E6EBF0E080818062808327
:1000C000E0EBF0E0808182608083E1EBF0E0808112
:1000D000856080838FEF8093B300E0E7F0E080815C
:1000E000826080837894089580910201873119F4A9
:1000F000109202010895809102018F5F80930201A6
:100100000895809101018C3319F410920101ECCF14
:10011000809101018F5F8093010108951F920F92DA
:100120000FB60F9211242F933F934F935F936F93CA
:100130007F938F939F93AF93BF93EF93FF938091A0
:1001400003018130C9F4DDDF80910001811101C01C
:1001500082DF10920301FF91EF91BF91AF919F91C8
:100160008F917F916F915F914F913F912F910F9060
:100170000FBE0F901F901895809103018F5F8093A1
:100180000301E9CF85B125B190E0807C8760822BA7
:1001900085B98BB19BB18368892B8BB988B198B134
:1001A0008E63892B88B92FEB87E299E0215080403C
:1001B0009040E1F700C0000095B185B18923807CB3
:1001C00085B99BB18BB189238C778BB998B188B1F4
:1001D0008923817C88B90895589A2FEB47E259E02A
:1001E000215040405040E1F700C0000058988FEB8C
:1001F00097E2E9E081509040E040E1F700C0000064
:10020000599A2FEB47E259E0215040405040E1F726
:1002100000C0000059988FEB97E2E9E081509040D0
:10022000E040E1F700C00000289A2FEB47E259E0D8
:10023000215040405040E1F700C0000028988FEB6B
:1002400097E2E9E081509040E040E1F700C0000013
:100250005F9A2FEB47E259E0215040405040E1F7D0
:1002600000C000005F988FEB97E2E9E0815090407A
:10027000E040E1F700C00000299A2FEB47E259E087
:10028000215040405040E1F700C0000029988FEB1A
:1002900097E2E9E081509040E040E1F700C00000C3
:1002A0002A9A2FEB47E259E0215040405040E1F7B5
:1002B00000C000002A9830E020E061E070E08FEBA1
:1002C00097E2E9E081509040E040E1F700C0000093
:1002D00048B1CB01022E01C0880F0A94EAF7942F8F
:1002E000982B98B94FEB57E2E9E041505040E0407D
:1002F000E1F700C0000098B18095892388B92F5F8D
:100300003F4F26303105D9F63DDF2FED43E954E06C
:10031000215040405040E1F700C0000033CF1F9211
:100320000F920FB60F9211248F939F93909100011B
:1003300081E0911180E0809300019F918F910F9057
:100340000FBE0F901F90189595B185B18923807CC1
:1003500085B99BB18BB189238C778BB998B188B162
:100360008923817C88B983B7817F866083BF83B707
:10037000816083BFF8947894889583B78E7F83BF1C
:10038000089584B1876084B987B18E6387B9529824
:100390005A9A809169008260809369008091690017
:1003A0008E7F80936900E89A53985B9A569A5E987C
:1003B000559A5D988AB183688AB9E99A80916900F3
:1003C000886080936900809169008B7F80936900C9
:1003D00054985C9A01DF78946EDE4C9915C083EDD9
:1003E00090E30197F1F700C000004C9902C089DE4C
:1003F00032DE4C9B02C00000F0CF83ED90E301970A
:10040000F1F700C00000F5CF80910001882399F337
:080410009BDFF1CFF894FFCF50
:00000001FF
