:1000000019C09CC1D3C131C030C02FC02EC095C013
:100010002CC02BC02AC029C028C027C026C025C09C
:1000200024C023C022C021C020C01FC01EC01DC0CC
:100030001CC01BC011241FBECFEFD2E0DEBFCDBF5E
:1000400011E0A0E0B1E0EAEAF5E002C005900D920F
:10005000A230B107D9F721E0A2E0B1E001C01D92C2
:10006000A630B207E1F778D29EC2CACF45B19091CF
:100070000301309103012091030192FB882780F94D
:10008000407C842B932F9695969596959270892B0C
:10009000922F9695969596959470892B85B98BB1EC
:1000A00090910301209103018C779370892B90E14B
:1000B000299F900111242078822B8BB998B18091CF
:1000C0000401917C880F892B88B908958091B6002E
:1000D00080628093B6008091B00082608093B0000F
:1000E0008091B10085608093B1008FEF8093B30061
:1000F000809170008260809370008091B6008B7157
:10010000E1F77894089580910401873119F41092F1
:1001100004010895809104018F5F80930401089584
:10012000809103018C3319F410920301ECCF80917C
:1001300003018F5F8093030108951F920F920FB602
:100140000F9211242F933F934F935F936F937F935D
:100150008F939F93AF93BF93EF93FF93809105018C
:100160008C33C9F4DDDF80910201811101C07EDF93
:1001700010920501FF91EF91BF91AF919F918F91E7
:100180007F916F915F914F913F912F910F900FBE93
:100190000F901F901895809105018F5F8093050146
:1001A000E9CF85B125B190E0807C8760822B85B94D
:1001B0008BB19BB18368892B8BB988B198B18E6361
:1001C000892B88B92FEB87E299E02150804090403D
:1001D000E1F700C0000095B185B18923807C85B925
:1001E0009BB18BB189238C778BB998B188B1892366
:1001F000817C88B90895589A2FEB47E259E0215045
:1002000040405040E1F700C0000058988FEB97E263
:10021000E9E081509040E040E1F700C00000599AC9
:100220002FEB47E259E0215040405040E1F700C039
:10023000000059988FEB97E2E9E081509040E04050
:10024000E1F700C00000289A2FEB47E259E0215067
:1002500040405040E1F700C0000028988FEB97E243
:10026000E9E081509040E040E1F700C000005F9A73
:100270002FEB47E259E0215040405040E1F700C0E9
:1002800000005F988FEB97E2E9E081509040E040FA
:10029000E1F700C00000299A2FEB47E259E0215016
:1002A00040405040E1F700C0000029988FEB97E2F2
:1002B000E9E081509040E040E1F700C000002A9A58
:1002C0002FEB47E259E0215040405040E1F700C099
:1002D00000002A9830E020E061E070E08FEB97E2C8
:1002E000E9E081509040E040E1F700C0000048B1F3
:1002F000CB01022E01C0880F0A94EAF7942F982BA5
:1003000098B94FEB57E2E9E041505040E040E1F747
:1003100000C0000098B18095892388B92F5F3F4FB6
:1003200026303105D9F63DDF2FED43E954E0215069
:1003300040405040E1F700C0000033CF1F920F92C1
:100340000FB60F9211242F933F934F935F936F93A8
:100350007F938F939F93AF93BF93EF93FF9390916E
:10036000020181E0911180E08093020180910201FD
:10037000811112C07BDEFF91EF91BF91AF919F91F0
:100380008F917F916F915F914F913F912F910F903E
:100390000FBE0F901F90189585B1887F85B98BB1DE
:1003A0008C778BB988B1817C88B9E5CF1F920F9289
:1003B0000FB60F9211248F93809100018D5C809372
:1003C0000001809100018F910F900FBE0F901F9040
:1003D000189580E090910001891708F06CC0909109
:1003E000030192FF68C0289A90910001891708F0D4
:1003F00064C09091030194FF60C0299A909100011C
:10040000891708F05CC09091030195FF58C02A9AA3
:1004100090910001891708F054C09091030190FF5A
:1004200050C0589A90910001891708F04CC09091E3
:10043000030191FF48C0599A90910001891708F073
:1004400044C09091030193FF40C05F9A90910001D6
:100450008917E8F59091040190FF39C0419A909175
:1004600000018917B0F59091040191FF32C0429AC2
:1004700090910001891778F59091040192FF2BC0AB
:10048000439A90910001891740F59091040193FFE0
:1004900024C0449A90910001891708F590910401B5
:1004A00094FF1DC0459A9AE09A95F1F78F5F8F3FB0
:1004B00009F090CF0895289897CF29989FCF2A9830
:1004C000A7CF5898AFCF5998B7CF5F98BFCF419873
:1004D000C6CF4298CDCF4398D4CF4498DBCF459830
:1004E000E2CF95B185B18923807C85B99BB18BB171
:1004F00089238C778BB998B188B18923817C88B99D
:1005000083B7817F866083BF83B7816083BFF894A0
:100510007894889583B78E7F83BF08954C9902C0E5
:10052000F2DDA4CDFDDDFDCF84B1876084B987B154
:100530008E6387B98AB1836E8AB98AB1837E8AB99C
:100540008BB18C618BB9E9E6F0E080818A608083B1
:100550008DB383608DBB0895E7DF4DDEB7DD789402
:100560004C9915C083ED90E30197F1F700C00000AE
:100570004C990AC09FE32DE083E0915020408040D9
:10058000E1F700C00000CADF4C9BFECFE9CF8091AD
:100590000201882311F0A5DFE3CF809102018111D0
:0A05A000DFCF17DFDDCFF894FFCFA7
:00000001FF
