:1000000019C098C1CFC131C030C02FC02EC091C01F
:100010002CC02BC02AC029C028C027C026C025C09C
:1000200024C023C022C021C020C01FC01EC01DC0CC
:100030001CC01BC011241FBECFEFD2E0DEBFCDBF5E
:1000400011E0A0E0B1E0EAE0F8E002C005900D9216
:10005000A230B107D9F721E0A2E0B1E001C01D92C2
:10006000A630B207E1F775D2CEC3CACF45B19091A1
:100070000301309103012091030192FB882780F94D
:10008000407C842B932F9695969596959270892B0C
:10009000922F9695969596959470892B85B98BB1EC
:1000A00090910301209103018C779370892B90E14B
:1000B000299F900111242078822B8BB998B18091CF
:1000C0000401917C880F892B88B90895E6EBF0E054
:1000D000808180628083E0EBF0E0808182608083B9
:1000E000E1EBF0E08081856080838FEF8093B30047
:1000F000E0E7F0E0808182608083789408958091C9
:100100000401873119F410920401089580910401CB
:100110008F5F809304010895809103018C3319F45B
:1001200010920301ECCF809103018F5F8093030154
:1001300008951F920F920FB60F9211242F933F93A1
:100140004F935F936F937F938F939F93AF93BF93DF
:10015000EF93FF93809105018C33C9F4DDDF80912B
:100160000201811101C082DF10920501FF91EF9120
:10017000BF91AF919F918F917F916F915F914F91BF
:100180003F912F910F900FBE0F901F901895809167
:1001900005018F5F80930501E9CF85B125B190E01E
:1001A000807C8760822B85B98BB19BB18368892B5A
:1001B0008BB988B198B18E63892B88B92FEB87E210
:1001C00099E0215080409040E1F700C0000095B1D7
:1001D00085B18923807C85B99BB18BB189238C77CC
:1001E0008BB998B188B18923817C88B90895589AD0
:1001F0002FEB47E259E0215040405040E1F700C06A
:10020000000058988FEB97E2E9E081509040E04081
:10021000E1F700C00000599A2FEB47E259E0215066
:1002200040405040E1F700C0000059988FEB97E242
:10023000E9E081509040E040E1F700C00000289ADA
:100240002FEB47E259E0215040405040E1F700C019
:10025000000028988FEB97E2E9E081509040E04061
:10026000E1F700C000005F9A2FEB47E259E0215010
:1002700040405040E1F700C000005F988FEB97E2EC
:10028000E9E081509040E040E1F700C00000299A89
:100290002FEB47E259E0215040405040E1F700C0C9
:1002A000000029988FEB97E2E9E081509040E04010
:1002B000E1F700C000002A9A2FEB47E259E02150F5
:1002C00040405040E1F700C000002A9830E020E0B4
:1002D00061E070E08FEB97E2E9E081509040E04010
:1002E000E1F700C0000048B1CB01022E01C0880F29
:1002F0000A94EAF7942F982B98B94FEB57E2E9E06C
:1003000041505040E040E1F700C0000098B18095B6
:10031000892388B92F5F3F4F26303105D9F63DDF5D
:100320002FED43E954E0215040405040E1F700C038
:10033000000033CF1F920F920FB60F9211242F930C
:100340003F934F935F936F937F938F939F93AF935D
:10035000BF93EF93FF939091020181E0911180E0B0
:100360008093020180910201811112C07FDEFF9112
:10037000EF91BF91AF919F918F917F916F915F911D
:100380004F913F912F910F900FBE0F901F90189596
:1003900085B1887F85B98BB18C778BB988B1817C29
:1003A00088B9E5CF1F920F920FB60F9211242F93A9
:1003B0003F934F935F936F937F938F939F93AF93ED
:1003C000BF93EF93FF936091000170E090E080E0B5
:1003D0008ED120E030E04CEC51E4F7D05AD160935C
:1003E000000180910001FF91EF91BF91AF919F912A
:1003F0008F917F916F915F914F913F912F910F90CE
:100400000FBE0F901F90189580E090910001891702
:1004100008F06CC09091030192FF68C0289A9091F7
:100420000001891708F064C09091030194FF60C037
:10043000299A90910001891708F05CC090910301FE
:1004400095FF58C02A9A90910001891708F054C06E
:100450009091030190FF50C0589A90910001891724
:1004600008F04CC09091030191FF48C0599A9091B7
:100470000001891708F044C09091030193FF40C028
:100480005F9A909100018917E8F59091040190FF1F
:1004900039C0419A909100018917B0F590910401FB
:1004A00091FF32C0429A90910001891778F590919E
:1004B000040192FF2BC0439A90910001891740F5E7
:1004C0009091040193FF24C0449A909100018917F0
:1004D00008F59091040194FF1DC0459A9AE09A9501
:1004E000F1F78F5F8F3F09F090CF0895289897CF4D
:1004F00029989FCF2A98A7CF5898AFCF5998B7CFB0
:100500005F98BFCF4198C6CF4298CDCF4398D4CF04
:100510004498DBCF4598E2CF95B185B18923807CA3
:1005200085B99BB18BB189238C778BB998B188B190
:100530008923817C88B983B7817F866083BF83B735
:10054000816083BFF8947894889583B78E7F83BF4A
:10055000089584B1876084B987B18E6387B98AB101
:10056000836E8AB98AB1837E8AB98BB18C618BB96B
:10057000809169008A60809369008DB383608DBB30
:1005800036DEA4DD78944C9913C083ED90E3019797
:10059000F1F700C000004C9902C0BEDD67DD4C9948
:1005A000F2CF83EC99E00197F1F700C00000F7CF9C
:1005B00080910201882311F0AFDFE5CF8091020125
:1005C0008111E1CF21DFDFCF5058BB27AA270ED002
:1005D000E0C0D1D030F0D6D020F031F49F3F11F4FC
:1005E0001EF4C6C00EF4E095E7FBBCC0E92FE2D0D4
:1005F00080F3BA17620773078407950718F071F440
:100600009EF5FAC00EF4E0950B2EBA2FA02D0B012B
:10061000B90190010C01CA01A0011124FF27591B47
:1006200099F0593F50F4503E68F11A16F040A22F4D
:10063000232F342F4427585FF3CF469537952795BE
:10064000A795F0405395C9F77EF41F16BA0B620BBD
:10065000730B840BBAF09150A1F0FF0FBB1F661F04
:10066000771F881FC2F70EC0BA0F621F731F841F47
:1006700048F4879577956795B795F7959E3F08F06D
:10068000B3CF9395880F08F09927EE0F979587952C
:10069000089598D088F09F5790F0B92F9927B751B7
:1006A000A0F0D1F0660F771F881F991F1AF0BA9536
:1006B000C9F712C0B13081F09FD0B1E008959CC05D
:1006C000672F782F8827B85F39F0B93FCCF386952C
:1006D00077956795B395D9F73EF490958095709589
:1006E00061957F4F8F4F9F4F0895E89409C097FB06
:1006F0003EF490958095709561957F4F8F4F9F4FF9
:100700009923A9F0F92F96E9BB279395F69587953C
:1007100077956795B795F111F8CFFAF4BB0F11F4FF
:1007200060FF1BC06F5F7F4F8F4F9F4F16C08823A6
:1007300011F096E911C0772321F09EE8872F762FDC
:1007400005C0662371F096E8862F70E060E02AF01D
:100750009A95660F771F881FDAF7880F9695879509
:1007600097F9089597F99F6780E870E060E0089531
:100770009FEF80EC089500240A94161617061806B9
:100780000906089500240A94121613061406050695
:100790000895092E0394000C11F4882352F0BB0F26
:1007A00040F4BF2B11F460FF04C06F5F7F4F8F4F89
:1007B0009F4F089557FD9058440F551F59F05F3FC4
:1007C00071F04795880F97FB991F61F09F3F79F073
:1007D00087950895121613061406551FF2CF4695F5
:1007E000F1DF08C0161617061806991FF1CF869577
:1007F0007105610508940895E894BB27662777275B
:0A080000CB0197F90895F894FFCF9B
:00000001FF
