:1000000019C028C027C026C025C024C023C067C08F
:1000100021C020C01FC01EC01DC01CC01BC01AC0F4
:1000200019C018C017C016C015C014C013C012C024
:1000300011C010C011241FBECFEFD2E0DEBFCDBF74
:1000400021E0A0E0B1E001C01D92A330B207E1F7CA
:100050008FD0A6C0D5CF45B150910001709100015D
:100060006091000152FB552750F9407C452B74FBF1
:10007000222720F930E0220F331F242B65FB88272D
:1000800080F990E0880F991F880F991F822B85B9FE
:100090002BB190910001809100012C779370922BED
:1000A00088708295807F892B8BB998B180910101EE
:1000B000917C880F892B88B90895809100018C3339
:1000C00041F410920001809101018F5F8093010142
:1000D0000895809100018F5F8093000108951F9221
:1000E0000F920FB60F9211242F933F934F935F936C
:1000F0006F937F938F939F93AF93BF93EF93FF93F0
:10010000809102018C3329F4D8DFA5DF109202011F
:1001100005C0809102018F5F80930201FF91EF91F2
:10012000BF91AF919F918F917F916F915F914F910F
:100130003F912F910F900FBE0F901F901895E6EBF7
:10014000F0E0808180628083E0EBF0E0808182607B
:100150008083E1EBF0E08081856080838FEF809386
:10016000B300E0E7F0E080818260808378940895B6
:1001700087E084B98EE387B953988AB183688AB9D6
:100180005B9AE99A80916900886080936900809108
:1001900069008B6F809369007894D1DF0000FECFF7
:0401A000F894FFCF01
:00000001FF
