:1000000019C028C027C026C025C024C023C086C070
:1000100021C020C01FC01EC01DC01CC01BC01AC0F4
:1000200019C018C017C016C015C014C013C012C024
:1000300011C010C011241FBECFEFD2E0DEBFCDBF74
:1000400021E0A0E0B1E001C01D92A330B207E1F7CA
:1000500095D0C4C0D5CF45B1909100013091000139
:100060002091000192FB882780F9407C842B932FFC
:100070009695969596959270892B922F9695969532
:1000800096959470892B85B98BB190910001209140
:1000900000018C779370892B90E1299F90011124A6
:1000A0002078822B8BB998B180910101917C880FC7
:1000B000892B88B90895E6EBF0E080818062808327
:1000C000E0EBF0E0808182608083E1EBF0E0808112
:1000D000856080838FEF8093B300E0E7F0E080815C
:1000E000826080837894089580910101873119F4AA
:1000F000109201010895809101018F5F80930101A9
:100100000895809100018C3319F410920001ECCF16
:10011000809100018F5F8093000108951F920F92DC
:100120000FB60F9211242F933F934F935F936F93CA
:100130007F938F939F93AF93BF93EF93FF938091A0
:1001400002018130A9F4DDDF86DF10920201FF9108
:10015000EF91BF91AF919F918F917F916F915F913F
:100160004F913F912F910F900FBE0F901F901895B8
:10017000809102018F5F80930201E9CF87E084B90B
:100180008EE387B953988AB183688AB95B9AE99AF2
:1001900080916900886080936900809169008B6F0D
:1001A0008093690054985C9A56DF789484DF4C9B66
:1001B00002C00000FCCF83ED90E30197F1F700C08F
:1001C00000004C9902C09DDF46DF4C99F2CF83EDD1
:1001D00090E30197F1F700C00000F7CFF894FFCF4C
:00000001FF
